{
  "_format": "hh-sol-artifact-1",
  "contractName": "Bloc",
  "sourceName": "contracts/Bloc.sol",
  "abi": [
    {
      "inputs": [
        {
          "internalType": "string",
          "name": "_task",
          "type": "string"
        }
      ],
      "name": "addTask",
      "outputs": [],
      "stateMutability": "nonpayable",
      "type": "function"
    },
    {
      "inputs": [
        {
          "internalType": "uint256",
          "name": "_taskIndex",
          "type": "uint256"
        }
      ],
      "name": "deleteTask",
      "outputs": [],
      "stateMutability": "nonpayable",
      "type": "function"
    },
    {
      "inputs": [
        {
          "internalType": "uint256",
          "name": "_taskIndex",
          "type": "uint256"
        }
      ],
      "name": "getTask",
      "outputs": [
        {
          "components": [
            {
              "internalType": "string",
              "name": "task",
              "type": "string"
            },
            {
              "internalType": "bool",
              "name": "isDone",
              "type": "bool"
            }
          ],
          "internalType": "struct Bloc.Task",
          "name": "",
          "type": "tuple"
        }
      ],
      "stateMutability": "view",
      "type": "function"
    },
    {
      "inputs": [],
      "name": "getTaskCount",
      "outputs": [
        {
          "internalType": "uint256",
          "name": "",
          "type": "uint256"
        }
      ],
      "stateMutability": "view",
      "type": "function"
    },
    {
      "inputs": [
        {
          "internalType": "uint256",
          "name": "_taskIndex",
          "type": "uint256"
        },
        {
          "internalType": "bool",
          "name": "_status",
          "type": "bool"
        }
      ],
      "name": "updateStatus",
      "outputs": [],
      "stateMutability": "nonpayable",
      "type": "function"
    }
  ],
  "bytecode": "0x608060405234801561001057600080fd5b50610918806100206000396000f3fe608060405234801561001057600080fd5b50600436106100575760003560e01c80631d65e77e1461005c578063387008c21461008c578063560f3192146100a857806367238562146100c4578063c17a340e146100e0575b600080fd5b610076600480360381019061007191906106a7565b6100fe565b60405161008391906107a0565b60405180910390f35b6100a660048036038101906100a191906106d0565b61024f565b005b6100c260048036038101906100bd91906106a7565b6102f2565b005b6100de60048036038101906100d99190610662565b6103a0565b005b6100e86104a6565b6040516100f591906107c2565b60405180910390f35b6101066104ef565b60008060003373ffffffffffffffffffffffffffffffffffffffff1673ffffffffffffffffffffffffffffffffffffffff168152602001908152602001600020838154811061017e577f4e487b7100000000000000000000000000000000000000000000000000000000600052603260045260246000fd5b90600052602060002090600202019050806040518060400160405290816000820180546101aa90610842565b80601f01602080910402602001604051908101604052809291908181526020018280546101d690610842565b80156102235780601f106101f857610100808354040283529160200191610223565b820191906000526020600020905b81548152906001019060200180831161020657829003601f168201915b505050505081526020016001820160009054906101000a900460ff161515151581525050915050919050565b806000803373ffffffffffffffffffffffffffffffffffffffff1673ffffffffffffffffffffffffffffffffffffffff16815260200190815260200160002083815481106102c6577f4e487b7100000000000000000000000000000000000000000000000000000000600052603260045260246000fd5b906000526020600020906002020160010160006101000a81548160ff0219169083151502179055505050565b6000803373ffffffffffffffffffffffffffffffffffffffff1673ffffffffffffffffffffffffffffffffffffffff1681526020019081526020016000208181548110610368577f4e487b7100000000000000000000000000000000000000000000000000000000600052603260045260246000fd5b906000526020600020906002020160008082016000610387919061050b565b6001820160006101000a81549060ff0219169055505050565b6000803373ffffffffffffffffffffffffffffffffffffffff1673ffffffffffffffffffffffffffffffffffffffff168152602001908152602001600020604051806040016040528084848080601f016020809104026020016040519081016040528093929190818152602001838380828437600081840152601f19601f820116905080830192505050505050508152602001600015158152509080600181540180825580915050600190039060005260206000209060020201600090919091909150600082015181600001908051906020019061047f92919061054b565b5060208201518160010160006101000a81548160ff02191690831515021790555050505050565b60008060003373ffffffffffffffffffffffffffffffffffffffff1673ffffffffffffffffffffffffffffffffffffffff16815260200190815260200160002080549050905090565b6040518060400160405280606081526020016000151581525090565b50805461051790610842565b6000825580601f106105295750610548565b601f01602090049060005260206000209081019061054791906105d1565b5b50565b82805461055790610842565b90600052602060002090601f01602090048101928261057957600085556105c0565b82601f1061059257805160ff19168380011785556105c0565b828001600101855582156105c0579182015b828111156105bf5782518255916020019190600101906105a4565b5b5090506105cd91906105d1565b5090565b5b808211156105ea5760008160009055506001016105d2565b5090565b6000813590506105fd816108b4565b92915050565b60008083601f84011261061557600080fd5b8235905067ffffffffffffffff81111561062e57600080fd5b60208301915083600182028301111561064657600080fd5b9250929050565b60008135905061065c816108cb565b92915050565b6000806020838503121561067557600080fd5b600083013567ffffffffffffffff81111561068f57600080fd5b61069b85828601610603565b92509250509250929050565b6000602082840312156106b957600080fd5b60006106c78482850161064d565b91505092915050565b600080604083850312156106e357600080fd5b60006106f18582860161064d565b9250506020610702858286016105ee565b9150509250929050565b610715816107f9565b82525050565b6000610726826107dd565b61073081856107e8565b935061074081856020860161080f565b610749816108a3565b840191505092915050565b60006040830160008301518482036000860152610771828261071b565b9150506020830151610786602086018261070c565b508091505092915050565b61079a81610805565b82525050565b600060208201905081810360008301526107ba8184610754565b905092915050565b60006020820190506107d76000830184610791565b92915050565b600081519050919050565b600082825260208201905092915050565b60008115159050919050565b6000819050919050565b60005b8381101561082d578082015181840152602081019050610812565b8381111561083c576000848401525b50505050565b6000600282049050600182168061085a57607f821691505b6020821081141561086e5761086d610874565b5b50919050565b7f4e487b7100000000000000000000000000000000000000000000000000000000600052602260045260246000fd5b6000601f19601f8301169050919050565b6108bd816107f9565b81146108c857600080fd5b50565b6108d481610805565b81146108df57600080fd5b5056fea264697066735822122055599388e68aa90e7761c5945c584d78ecbee185cacef6440a39a5b86b40bdfc64736f6c63430008010033",
  "linkReferences": {},
  "deployedLinkReferences": {}
}